:100000000C9434000C9451000C9451000C94510049
:100010000C9451000C9451000C9451000C9451001C
:100020000C9451000C9451000C9451000C9451000C
:100030000C9451000C9451000C9451000C945100FC
:100040000C9451000C9451000C9451000C945100EC
:100050000C9451000C9451000C9451000C945100DC
:100060000C9451000C94510011241FBECFEFD8E026
:10007000DEBFCDBF11E0A0E0B1E0E0E1FBE002C0F7
:1000800005900D92AA32B107D9F721E0AAE2B1E0BA
:1000900001C01D92A033B207E1F70E941A010C942F
:1000A00086050C9400005A9A00005A980895CF9340
:1000B000C82F662311F0589A01C0589859983D9A54
:1000C0003C9A3B9A3A9A4298439844984598CC2354
:1000D0000CF4429AC6FD439AC5FD449AC4FD459A64
:1000E0000E9453004298439844984598C3FD429A11
:1000F000C2FD439AC1FD449AC0FD459A0E94530037
:10010000459A449A439A429ACF910895882311F0D0
:10011000589A01C05898599A3D983C983B983A98FB
:100120005A9A0000359B02C080E101C080E03499FA
:10013000806233998064329980685A9800005A9A94
:1001400000003599816034998260339984603299D6
:1001500088605A98089580E00E9486008823DCF326
:1001600000C000C080E00E9486000895CF93C82F91
:100170000E94AB0060E08C2F0E945700CF91089541
:1001800081E00E94B6000895CF93C82F0E94AB0073
:10019000CA3049F4803410F080E001C080E4805817
:1001A0000E94B60004C061E08C2F0E945700CF91DE
:1001B0000895CF93C82F509A519A529A3D9A3C9ADB
:1001C0003B9A3A9A8FE99FE00197F1F700C000004F
:1001D000449A459A0E94530081EE94E00197F1F70A
:1001E00000C000000E94530095E19A95F1F70000CD
:1001F0000E94530085E18A95F1F7000045980E941E
:10020000530095E19A95F1F7000088E20E94B6004C
:1002100088E00E94B6000E94C00086E00E94B600FE
:100220008C2F0E94B600CF9108950E94C40080E0F8
:1002300090E0089580E091E090932D0180932C014F
:100240008CE00E94D900ECE7F0E08081806480833C
:1002500084E880937A000E94C00083ED90E30197C8
:10026000F1F700C000000CE710E0CAE7D0E00F2E65
:10027000F8E78F2E912CF02D0F2EFEE0AF2EF1E03F
:10028000BF2EF02D0F2EFEE16F2EF1E07F2EF02D10
:10029000F8018081807F8083808180838881806471
:1002A0008883888186FDFDCFF401E080F180F8012C
:1002B0008081807F80838081816080838881806469
:1002C0008883888186FDFDCFF401C080D180B7018D
:1002D00080E090E00E94C00120E030E04AEF5EE361
:1002E0000E9426020E9491017F936F93FF92EF92EA
:1002F000BF92AF920E94BB02DF92CF927F926F9229
:100300000E94BB0283ED90E30197F1F700C000006B
:10031000EDB7FEB73A960FB6F894FEBF0FBEEDBF2D
:10032000B7CF0E94050288F09F5798F0B92F992700
:10033000B751B0F0E1F0660F771F881F991F1AF0D0
:10034000BA95C9F714C0B13091F00E941F02B1E014
:1003500008950C941F02672F782F8827B85F39F013
:10036000B93FCCF3869577956795B395D9F73EF469
:1003700090958095709561957F4F8F4F9F4F089511
:10038000E89409C097FB3EF490958095709561952F
:100390007F4F8F4F9F4F9923A9F0F92F96E9BB27E5
:1003A0009395F695879577956795B795F111F8CF61
:1003B000FAF4BB0F11F460FF1BC06F5F7F4F8F4FCC
:1003C0009F4F16C0882311F096E911C0772321F0C2
:1003D0009EE8872F762F05C0662371F096E8862F5A
:1003E00070E060E02AF09A95660F771F881FDAF7B1
:1003F000880F9695879597F9089557FD9058440F63
:10040000551F59F05F3F71F04795880F97FB991F73
:1004100061F09F3F79F08795089512161306140630
:10042000551FF2CF4695F1DF08C0161617061806BD
:10043000991FF1CF86957105610508940895E89498
:10044000BB2766277727CB0197F908950E943902C9
:100450000C94AA020E949C0238F00E94A30220F091
:10046000952311F00C9493020C94990211240C948E
:1004700020020E94FD0170F3959FC1F3950F50E09B
:10048000551F629FF001729FBB27F00DB11D639F46
:10049000AA27F00DB11DAA1F649F6627B00DA11DEC
:1004A000661F829F2227B00DA11D621F739FB00D92
:1004B000A11D621F839FA00D611D221F749F332702
:1004C000A00D611D231F849F600D211D822F762F9B
:1004D0006A2F11249F5750409AF0F1F088234AF078
:1004E000EE0FFF1FBB1F661F771F881F91505040E4
:1004F000A9F79E3F510580F00C9493020C942002C2
:100500005F3FE4F3983ED4F3869577956795B7956A
:10051000F795E7959F5FC1F7FE2B880F911D969584
:10052000879597F9089597F99F6780E870E060E0F4
:1005300008959FEF80EC089500240A94161617067C
:1005400018060906089500240A94121613061406C4
:1005500005060895092E0394000C11F4882352F027
:10056000BB0F40F4BF2B11F460FF04C06F5F7F4FDF
:100570008F4F9F4F0895A0E0B0E0E1ECF2E00C94C3
:100580005F05AE014B5F5F4FFA0161917191AF0161
:1005900080912C0190912D010E94D102E2E00C94F7
:1005A0007B05ACE0B0E0E7EDF2E00C944F057C0198
:1005B0006B018A01FC0117821682838181FFBDC114
:1005C000CE0101964C01F7019381F60193FD8591CF
:1005D00093FF81916F01882309F4ABC1853239F40F
:1005E00093FD859193FF81916F01853229F4B701C5
:1005F00090E00E94B904E7CF512C312C20E020324A
:10060000A0F48B3269F030F4803259F0833269F40F
:1006100020612CC08D3239F0803339F4216026C03E
:100620002260246023C0286021C027FD27C030ED50
:10063000380F3A3078F426FF06C0FAE05F9E300D9E
:100640001124532E13C08AE0389E300D1124332E0E
:1006500020620CC08E3221F426FD6BC1206406C0DE
:100660008C3611F4206802C0883641F4F60193FDFF
:10067000859193FF81916F018111C1CF982F9F7D4B
:100680009554933028F40C5F1F4FFFE3F9830DC09E
:10069000833631F0833771F0833509F05BC022C0B7
:1006A000F801808189830E5F1F4F44244394512CAD
:1006B000540115C03801F2E06F0E711CF801A080E2
:1006C000B18026FF03C0652D70E002C06FEF7FEFA1
:1006D000C5012C870E94AE042C0183012C852F7745
:1006E000222E17C03801F2E06F0E711CF801A080B5
:1006F000B18026FF03C0652D70E002C06FEF7FEF71
:10070000C5012C870E94A3042C012C852068222E71
:10071000830123FC1BC0832D90E048165906B0F4DA
:10072000B70180E290E00E94B9043A94F4CFF50159
:1007300027FC859127FE81915F01B70190E00E941F
:10074000B90431103A94F1E04F1A510841145104A0
:1007500071F7E5C0843611F0893639F5F80127FFC5
:1007600007C060817181828193810C5F1F4F08C037
:1007700060817181072E000C880B990B0E5F1F4F53
:100780002F76722E97FF09C0909580957095619590
:100790007F4F8F4F9F4F2068722E2AE030E0A401D8
:1007A0000E94F104A82EA81844C0853729F42F7E92
:1007B000B22E2AE030E025C0F22FF97FBF2E8F360F
:1007C000C1F018F4883579F0B4C0803719F0883753
:1007D00021F0AFC02F2F2061B22EB4FE0DC08B2DA3
:1007E0008460B82E09C024FF0AC09F2F9660B92EDE
:1007F00006C028E030E005C020E130E002C020E182
:1008000032E0F801B7FE07C0608171818281938177
:100810000C5F1F4F06C06081718180E090E00E5F29
:100820001F4FA4010E94F104A82EA818FB2DFF77EA
:100830007F2E76FE0BC0372D3E7FA51450F474FE3C
:100840000AC072FC08C0372D3E7E05C0BA2C372D79
:1008500003C0BA2C01C0B52C34FF0DC0FE01EA0D57
:10086000F11D8081803311F4397E09C032FF06C04A
:10087000B394B39404C0832F867809F0B39433FD06
:1008800013C030FF06C05A2CB31418F4530C5B1875
:10089000B32CB31468F4B70180E290E03C870E9467
:1008A000B904B3943C85F5CFB31410F43B1801C0E0
:1008B000312C34FF12C0B70180E390E03C870E94E6
:1008C000B9043C8532FF17C031FD03C088E790E0D2
:1008D00002C088E590E0B7010CC0832F867859F0FC
:1008E00031FF02C08BE201C080E237FD8DE2B7012B
:1008F00090E00E94B904A51438F4B70180E390E0B9
:100900000E94B9045A94F7CFAA94F401EA0DF11D9C
:100910008081B70190E00E94B904A110F5CF332087
:1009200009F451CEB70180E290E00E94B9043A94F4
:10093000F6CFF7018681978102C08FEF9FEF2C964B
:10094000E2E10C946B05FC010590615070400110D0
:10095000D8F7809590958E0F9F1F0895FC016150E8
:10096000704001900110D8F7809590958E0F9F1FD1
:1009700008950F931F93CF93DF93FB01238121FDF4
:1009800003C08FEF9FEF28C022FF16C0468157811A
:10099000248135814217530744F4A081B1819D0120
:1009A0002F5F3F4F318320838C93268137812F5FC8
:1009B0003F4F3783268310C0EB01092F182F008487
:1009C000F185E02D0995892BE1F68E819F810196B5
:1009D0009F838E83812F902FDF91CF911F910F9155
:1009E0000895FA01AA27283051F1203181F1E894C5
:1009F0006F936E7F6E5F7F4F8F4F9F4FAF4FB1E012
:100A00003ED0B4E03CD0670F781F891F9A1FA11D0C
:100A1000680F791F8A1F911DA11D6A0F711D811D0D
:100A2000911DA11D20D009F468943F912AE0269FD2
:100A300011243019305D3193DEF6CF010895462F31
:100A40004770405D4193B3E00FD0C9F7F6CF462F12
:100A50004F70405D4A3318F0495D31FD405241937B
:100A600002D0A9F7EACFB4E0A69597958795779538
:100A70006795BA95C9F700976105710508959B01BF
:100A8000AC010A2E06945795479537952795BA9548
:100A9000C9F7620F731F841F951FA01D08952F9221
:100AA0003F924F925F926F927F928F929F92AF92FE
:100AB000BF92CF92DF92EF92FF920F931F93CF934B
:100AC000DF93CDB7DEB7CA1BDB0B0FB6F894DEBFE2
:100AD0000FBECDBF09942A88398848885F846E8408
:100AE0007D848C849B84AA84B984C884DF80EE8052
:100AF000FD800C811B81AA81B981CE0FD11D0FB65B
:100B0000F894DEBF0FBECDBFED010895F894FFCF7E
:100B100000000002000000001501000000004C4D24
:100B20003335203A20256420256420430A00446997
:0A0B30006F64653A2025640A000096
:00000001FF
