S021000050726F6A6563743454656D706572617475726553656E736F722E73726563F0
S11300000C9434000C9449000C9449000C9449005D
S11300100C9449000C9449000C9449000C94490038
S11300200C9449000C9449000C9449000C94490028
S11300300C9449000C9449000C9449000C94490018
S11300400C9449000C9449000C9449000C94490008
S11300500C9449000C9449000C9449000C944900F8
S11300600C9449000C94490011241FBECFEFD8E032
S1130070DEBFCDBF11E0A0E0B1E0ECE3F2E002C0EE
S113008005900D92A231B107D9F70E94FF000C949C
S11300901C010C940000469A0000469808951F9392
S11300A0CF93DF931F92CDB7DEB7662311F0449A46
S11300B001C04498459897B19F6097B998B1192F9A
S11300C0107F982F92959F70912B98B989830E94E5
S11300D04B0089818F70812B88B90E944B001F606F
S11300E018B90F90DF91CF911F9108954498459AC4
S11300F087B1807F87B9469A000096B14698000080
S1130100469A000026B12F70892F8295807F4698E9
S1130110822B08950E94760087FDFCCF00C000C0AA
S11301200C947600CF93C82F0E948A0060E08C2F35
S1130130CF910C944F00611102C0805801C08054CB
S11301400C94920081E00C94920082E00C94920052
S1130150CF93C82F0E948A00CA3049F4803410F02B
S113016080E001C080E48058CF910C94920061E05B
S11301708C2FCF910C944F00CF93DF93EC01899196
S1130180882319F00E94A800FACFDF91CF91089537
S1130190CF93C82F97B19F6797B98FE99FE00197D5
S11301A0F1F700C00000419A409A0E944B0081EE92
S11301B094E00197F1F700C000000E944B0095E124
S11301C09A95F1F700000E944B0085E18A95F1F7BA
S11301D0000040980E944B0095E19A95F1F70000C9
S11301E088E20E94920088E00E9492000E94A2008D
S11301F086E00E9492008C2FCF910C94920087B1DC
S11302008C6387B98EE00E94C8000E94A2000E94FD
S1130210A50080E091E00E94BC0061E080E00E94C3
S11302209B0086E091E00E94BC0083ED90E301977F
S10F0230F1F700C00000E9CFF894FFCF04
S113023C68656C6C6F006D6178456D6265646465AE
S105024C640048
S9030000FC
